{
  "contractName": "Adoption",
  "abi": [
    {
      "constant": true,
      "inputs": [
        {
          "name": "",
          "type": "uint256"
        }
      ],
      "name": "adopters",
      "outputs": [
        {
          "name": "",
          "type": "address"
        }
      ],
      "payable": false,
      "stateMutability": "view",
      "type": "function",
      "signature": "0x43ae80d3"
    },
    {
      "constant": false,
      "inputs": [
        {
          "name": "petId",
          "type": "uint256"
        }
      ],
      "name": "adopt",
      "outputs": [
        {
          "name": "",
          "type": "uint256"
        }
      ],
      "payable": false,
      "stateMutability": "nonpayable",
      "type": "function",
      "signature": "0x8588b2c5"
    },
    {
      "constant": true,
      "inputs": [],
      "name": "getAdopters",
      "outputs": [
        {
          "name": "",
          "type": "address[16]"
        }
      ],
      "payable": false,
      "stateMutability": "view",
      "type": "function",
      "signature": "0x3de4eb17"
    },
    {
      "constant": false,
      "inputs": [
        {
          "name": "petId",
          "type": "uint256"
        }
      ],
      "name": "giveInAdoption",
      "outputs": [
        {
          "name": "",
          "type": "uint256"
        }
      ],
      "payable": false,
      "stateMutability": "nonpayable",
      "type": "function",
      "signature": "0x17d93c33"
    }
  ],
  "bytecode": "0x608060405234801561001057600080fd5b506104fe806100206000396000f3fe608060405260043610610062576000357c0100000000000000000000000000000000000000000000000000000000900463ffffffff16806317d93c33146100675780633de4eb17146100b657806343ae80d3146101095780638588b2c514610184575b600080fd5b34801561007357600080fd5b506100a06004803603602081101561008a57600080fd5b81019080803590602001909291905050506101d3565b6040518082815260200191505060405180910390f35b3480156100c257600080fd5b506100cb61031a565b6040518082601060200280838360005b838110156100f65780820151818401526020810190506100db565b5050505090500191505060405180910390f35b34801561011557600080fd5b506101426004803603602081101561012c57600080fd5b810190808035906020019092919050505061039b565b604051808273ffffffffffffffffffffffffffffffffffffffff1673ffffffffffffffffffffffffffffffffffffffff16815260200191505060405180910390f35b34801561019057600080fd5b506101bd600480360360208110156101a757600080fd5b81019080803590602001909291905050506103d0565b6040518082815260200191505060405180910390f35b60008082101580156101e65750600f8211155b801561024f5750600073ffffffffffffffffffffffffffffffffffffffff1660008360108110151561021457fe5b0160009054906101000a900473ffffffffffffffffffffffffffffffffffffffff1673ffffffffffffffffffffffffffffffffffffffff1614155b15156102c3576040517f08c379a000000000000000000000000000000000000000000000000000000000815260040180806020018281038252601e8152602001807f43757272656e7420706574206973206e6f7420696e2061646f7074696f6e000081525060200191505060405180910390fd5b600080836010811015156102d357fe5b0160006101000a81548173ffffffffffffffffffffffffffffffffffffffff021916908373ffffffffffffffffffffffffffffffffffffffff160217905550819050919050565b6103226104ae565b6000601080602002604051908101604052809291908260108015610391576020028201915b8160009054906101000a900473ffffffffffffffffffffffffffffffffffffffff1673ffffffffffffffffffffffffffffffffffffffff1681526020019060010190808311610347575b5050505050905090565b6000816010811015156103aa57fe5b016000915054906101000a900473ffffffffffffffffffffffffffffffffffffffff1681565b60008082101580156103e35750600f8211155b1515610457576040517f08c379a000000000000000000000000000000000000000000000000000000000815260040180806020018281038252601d8152602001807f5065742073656c6563746564206973206e6f7420617661696c61626c6500000081525060200191505060405180910390fd5b3360008360108110151561046757fe5b0160006101000a81548173ffffffffffffffffffffffffffffffffffffffff021916908373ffffffffffffffffffffffffffffffffffffffff160217905550819050919050565b6102006040519081016040528060109060208202803883398082019150509050509056fea165627a7a723058208229bbb2d13fd2b46fa865fdffece7e9e71dd4338f805fed93946e2535f09ccd0029",
  "source": "pragma solidity ^0.5.0;\r\n\r\ncontract Adoption {\r\n    address[16] public adopters;\r\n\r\n    // Adoption a pet\r\n    function adopt(uint petId) public returns (uint){\r\n        require(petId >= 0 && petId <= 15,\"Pet selected is not available\");\r\n\r\n        adopters[petId] = msg.sender;\r\n\r\n        return petId;\r\n    }\r\n\r\n    // Retrieve the adopters\r\n    function getAdopters() public view returns (address[16] memory) {\r\n        return adopters;\r\n    }\r\n\r\n    // Enabled give in adoption\r\n    function giveInAdoption(uint petId) public returns (uint){\r\n        require(petId >= 0 && petId <= 15 && adopters[petId] != address(0),\"Current pet is not in adoption\");\r\n\r\n        adopters[petId] = address(0);   // Release the adoption.\r\n\r\n        return petId;\r\n    }\r\n}",
  "sourcePath": "C:/Fuentes/blockchain/pet-shop-tutorial/contracts/Adoption.sol",
  "compiler": {
    "name": "solc",
    "version": "0.5.0+commit.1d4f565a.Emscripten.clang"
  },
  "schemaVersion": "3.0.1",
  "updatedAt": "2019-01-20T17:12:50.670Z",
  "devdoc": {
    "methods": {}
  },
  "userdoc": {
    "methods": {}
  }
}